:100000000C942A000C9403060C9436060C94690692
:100010000C943C000C943C000C943C000C943C0070
:100020000C943C000C943C000C943C000C943C0060
:100030000C943C000C943C000C943C000C943C0050
:100040000C943C000C943C000C943C000C943C0040
:100050000C943C0011241FBECFE5D8E0DEBFCDBF1D
:1000600010E0A0E6B0E001C01D92A636B107E1F7AE
:100070000E943E000C94B8060C940000DF93CF93CE
:10008000CDB7DEB780E060E041E00E94B70081E0DC
:1000900062E040E00E94B70081E062E041E00E943F
:1000A00010022AE530E082E0B9010E94DF050E94DB
:1000B0009C06F7CFDF93CF93CDB7DEB780E060E04B
:1000C00041E00E941002CF91DF910895DF93CF931A
:1000D00000D000D00F92CDB7DEB78A836B83198230
:1000E0008B81882319F48B81813019F084E0898316
:1000F00035C08A81282F30E03D832C838C819D81FF
:1001000081309105D1F02C813D81223031052CF4D4
:100110008C819D81009761F01FC02C813D81223030
:10012000310581F08C819D818330910581F014C06F
:10013000EAE3F0E08B81808311C0E7E3F0E08B819C
:1001400080830CC0E4E3F0E08B81808307C0E1E3AF
:10015000F0E08B81808302C081E0898389810F90E8
:100160000F900F900F900F90CF91DF910895DF9334
:10017000CF9300D000D000D0CDB7DEB78A836B8399
:100180004C8319828B81883008F0EDC08A81282F3A
:1001900030E03E832D838D819E818130910509F46D
:1001A00049C02D813E81223031052CF48D819E8104
:1001B000009771F0D5C02D813E812230310509F4C0
:1001C0006BC08D819E818330910509F497C0C8C0B2
:1001D0008C818130A1F4AAE3B0E0EAE3F0E0808111
:1001E000482F8B81282F30E081E090E0022E02C062
:1001F000880F991F0A94E2F7842B8C93B6C08C81E8
:100200008823A9F4AAE3B0E0EAE3F0E08081482F74
:100210008B81282F30E081E090E0022E02C0880F11
:10022000991F0A94E2F7809584238C939EC084E002
:1002300089839BC08C818130A1F4A7E3B0E0E7E320
:10024000F0E08081482F8B81282F30E081E090E022
:10025000022E02C0880F991F0A94E2F7842B8C9318
:1002600084C08C818823A9F4A7E3B0E0E7E3F0E041
:100270008081482F8B81282F30E081E090E0022E92
:1002800002C0880F991F0A94E2F7809584238C930B
:100290006CC084E0898369C08C818130A1F4A4E3BF
:1002A000B0E0E4E3F0E08081482F8B81282F30E03C
:1002B00081E090E0022E02C0880F991F0A94E2F7B5
:1002C000842B8C9352C08C818823A9F4A4E3B0E0E2
:1002D000E4E3F0E08081482F8B81282F30E081E03B
:1002E00090E0022E02C0880F991F0A94E2F78095D1
:1002F00084238C933AC084E0898337C08C81813019
:10030000A1F4A1E3B0E0E1E3F0E08081482F8B812C
:10031000282F30E081E090E0022E02C0880F991F64
:100320000A94E2F7842B8C9320C08C818823A9F453
:10033000A1E3B0E0E1E3F0E08081482F8B81282F3A
:1003400030E081E090E0022E02C0880F991F0A94ED
:10035000E2F7809584238C9308C084E0898305C0EC
:1003600081E0898302C082E08983898126960FB665
:10037000F894DEBF0FBECDBFCF91DF910895DF931C
:10038000CF9300D000D00F92CDB7DEB78A836B83B6
:1003900019828B81813019F08B818823B1F58A8194
:1003A000282F30E03D832C838C819D818130910505
:1003B000D1F02C813D81223031052CF48C819D813E
:1003C000009761F01FC02C813D812230310581F002
:1003D0008C819D818330910581F014C0EBE3F0E0C6
:1003E0008B81808314C0E8E3F0E08B8180830FC0B1
:1003F000E5E3F0E08B8180830AC0E8E3F0E08B81E5
:10040000808305C081E0898302C083E0898389817C
:100410000F900F900F900F900F90CF91DF91089554
:10042000DF93CF9300D000D000D0CDB7DEB78A8362
:100430006B834C8319828B81883008F0EDC08A81F0
:10044000282F30E03E832D838D819E818130910560
:1004500009F449C02D813E81223031052CF48D8173
:100460009E81009771F0D5C02D813E8122303105EB
:1004700009F46BC08D819E818330910509F497C08A
:10048000C8C08C818130A1F4ABE3B0E0EBE3F0E0D5
:100490008081482F8B81282F30E081E090E0022E70
:1004A00002C0880F991F0A94E2F7842B8C93B6C080
:1004B0008C818823A9F4ABE3B0E0EBE3F0E080812A
:1004C000482F8B81282F30E081E090E0022E02C07F
:1004D000880F991F0A94E2F7809584238C939EC01D
:1004E00083E089839BC08C818130A1F4A8E3B0E0D4
:1004F000E8E3F0E08081482F8B81282F30E081E015
:1005000090E0022E02C0880F991F0A94E2F7842B14
:100510008C9384C08C818823A9F4A8E3B0E0E8E33D
:10052000F0E08081482F8B81282F30E081E090E03F
:10053000022E02C0880F991F0A94E2F78095842347
:100540008C936CC083E0898369C08C818130A1F475
:10055000A5E3B0E0E5E3F0E08081482F8B81282F10
:1005600030E081E090E0022E02C0880F991F0A94CB
:10057000E2F7842B8C9352C08C818823A9F4A5E3E5
:10058000B0E0E5E3F0E08081482F8B81282F30E058
:1005900081E090E0022E02C0880F991F0A94E2F7D2
:1005A000809584238C933AC083E0898337C08C8103
:1005B0008130A1F4A2E3B0E0E2E3F0E08081482FD3
:1005C0008B81282F30E081E090E0022E02C0880F5E
:1005D000991F0A94E2F7842B8C9320C08C81882386
:1005E000A9F4A2E3B0E0E2E3F0E08081482F8B8140
:1005F000282F30E081E090E0022E02C0880F991F82
:100600000A94E2F7809584238C9308C083E0898361
:1006100005C081E0898302C082E0898389812696B2
:100620000FB6F894DEBF0FBECDBFCF91DF91089516
:10063000DF93CF9300D000D000D0CDB7DEB78A8350
:100640007C836B8319828A81282F30E03E832D833F
:100650008D819E8181309105E1F02D813E81223096
:1006600031052CF48D819E81009761F027C02D818A
:100670003E8122303105A1F08D819E81833091052C
:10068000B1F01CC0EAE3F0E08081EB81FC81808363
:1006900017C0E7E3F0E08081EB81FC81808310C02C
:1006A000E4E3F0E08081EB81FC81808309C0E1E339
:1006B000F0E08081EB81FC81808302C081E089834E
:1006C000898126960FB6F894DEBF0FBECDBFCF91BD
:1006D000DF910895DF93CF93CDB7DEB727970FB69D
:1006E000F894DEBF0FBECDBF8A836B835D834C83DE
:1006F00019828B81883008F084C08A81282F30E0ED
:100700003F832E834E815F814130510579F18E8187
:100710009F818230910534F42E813F81211531056E
:1007200069F06CC04E815F8142305105B9F18E8114
:100730009F818330910509F449C060C0ABE3B0E00C
:10074000EBE3F0E08081282F30E08B81882F90E070
:10075000A90102C0559547958A95E2F7CA018170B3
:100760008C938C91EC81FD8180834DC0A8E3B0E037
:10077000E8E3F0E08081282F30E08B81882F90E043
:10078000A90102C0559547958A95E2F7CA01817083
:100790008C938C91EC81FD81808335C0A5E3B0E022
:1007A000E5E3F0E08081282F30E08B81882F90E016
:1007B000A90102C0559547958A95E2F7CA01817053
:1007C0008C938C91EC81FD8180831DC0A2E3B0E00D
:1007D000E2E3F0E08081282F30E08B81882F90E0E9
:1007E000A90102C0559547958A95E2F7CA01817023
:1007F0008C938C91EC81FD81808305C081E089839D
:1008000002C082E08983898127960FB6F894DEBF03
:100810000FBECDBFCF91DF910895DF93CF9300D06E
:1008200000D0CDB7DEB78A8319828A81282F30E0C5
:100830003C832B838B819C818130910599F12B81A5
:100840003C81223031052CF48B819C810097D9F0BA
:1008500047C02B813C812230310531F08B819C8156
:100860008330910571F13CC0A5E5B0E0E5E5F0E02D
:10087000808182608C93A5E5B0E0E5E5F0E08081C1
:100880008E7F8C932FC0A5E5B0E0E5E5F0E0808198
:100890008D7F8C93A5E5B0E0E5E5F0E080818E7F6B
:1008A0008C9320C0A5E5B0E0E5E5F0E080818160B3
:1008B0008C93A5E5B0E0E5E5F0E080818D7F8C9339
:1008C00011C0A5E5B0E0E5E5F0E0808182608C93A1
:1008D000A5E5B0E0E5E5F0E0808181608C9302C0A1
:1008E00081E0898389810F900F900F900F90CF91B5
:1008F000DF910895DF93CF9300D000D0CDB7DEB75E
:100900008A8319828A81282F30E03C832B838B8154
:100910009C818130910599F12B813C8122303105F8
:100920002CF48B819C810097D9F047C02B813C81AE
:100930002230310531F08B819C818330910571F13A
:100940003CC0A5E5B0E0E5E5F0E0808188608C93EF
:10095000A5E5B0E0E5E5F0E080818B7F8C932FC0CA
:10096000A5E5B0E0E5E5F0E08081877F8C93A5E523
:10097000B0E0E5E5F0E080818B7F8C9320C0A5E5B9
:10098000B0E0E5E5F0E0808184608C93A5E5B0E01F
:10099000E5E5F0E08081877F8C9311C0A5E5B0E0AC
:1009A000E5E5F0E0808188608C93A5E5B0E0E5E5C1
:1009B000F0E0808184608C9302C081E0898389812A
:1009C0000F900F900F900F90CF91DF910895DF93CC
:1009D000CF9300D000D0CDB7DEB78A8319828A8149
:1009E000282F30E03C832B838B819C8182309105C2
:1009F00031F02B813C812330310549F010C0A5E551
:100A0000B0E0E5E5F0E080818F7B8C930AC0A5E53E
:100A1000B0E0E5E5F0E0808180648C9302C081E085
:100A2000898389810F900F900F900F90CF91DF9164
:100A30000895DF93CF93CDB7DEB7ABE5B0E0EBE53C
:100A4000F0E0808180648C93CF91DF910895DF93F3
:100A5000CF93CDB7DEB7ABE5B0E0EBE5F0E080815A
:100A600080688C93CF91DF910895DF93CF93CDB7BA
:100A7000DEB7ABE5B0E0EBE5F0E0808180628C931F
:100A8000CF91DF910895DF93CF93CDB7DEB7ABE57C
:100A9000B0E0EBE5F0E080818F7B8C93CF91DF912C
:100AA0000895DF93CF93CDB7DEB7ABE5B0E0EBE5CC
:100AB000F0E080818F778C93CF91DF910895DF9361
:100AC000CF93CDB7DEB7ABE5B0E0EBE5F0E08081EA
:100AD0008F7D8C93CF91DF910895DF93CF93CDB726
:100AE000DEB7AAE5B0E0EAE5F0E0808180648C93AF
:100AF000CF91DF910895DF93CF93CDB7DEB7AAE50D
:100B0000B0E0EAE5F0E0808180688C93CF91DF91DE
:100B10000895DF93CF93CDB7DEB7AAE5B0E0EAE55D
:100B2000F0E0808180628C93CF91DF910895DF9314
:100B3000CF9300D000D0CDB7DEB78A837C836B83A0
:100B400019828B819C81009739F08B819C819093D5
:100B500061008093600002C082E089838A810E94E4
:100B60000D040E94190589810F900F900F900F902E
:100B7000CF91DF910895DF93CF9300D000D0CDB710
:100B8000DEB78A837C836B8319828B819C8100977B
:100B900039F08B819C81909363008093620002C046
:100BA00082E089838A810E947A040E9427058981D4
:100BB0000F900F900F900F90CF91DF910895DF93DA
:100BC000CF9300D000D0CDB7DEB78A837C836B8310
:100BD00019828B819C81009739F08B819C81909345
:100BE00065008093640002C082E089838A810E944C
:100BF0007A040E94350589810F900F900F900F9015
:100C0000CF91DF9108951F920F920FB60F9211248A
:100C10002F933F934F935F936F937F938F939F9304
:100C2000AF93BF93EF93FF93DF93CF93CDB7DEB72F
:100C30008091600090916100009729F0E091600040
:100C4000F09161000995CF91DF91FF91EF91BF91F4
:100C5000AF919F918F917F916F915F914F913F9154
:100C60002F910F900FBE0F901F9018951F920F920B
:100C70000FB60F9211242F933F934F935F936F936F
:100C80007F938F939F93AF93BF93EF93FF93DF93E4
:100C9000CF93CDB7DEB7809162009091630000974B
:100CA00029F0E0916200F09163000995CF91DF9106
:100CB000FF91EF91BF91AF919F918F917F916F9134
:100CC0005F914F913F912F910F900FBE0F901F900A
:100CD00018951F920F920FB60F9211242F933F93E6
:100CE0004F935F936F937F938F939F93AF93BF9334
:100CF000EF93FF93DF93CF93CDB7DEB7809164007E
:100D000090916500009729F0E0916400F0916500F2
:100D10000995CF91DF91FF91EF91BF91AF919F9195
:100D20008F917F916F915F914F913F912F910F9094
:100D30000FBE0F901F901895DF93CF93CDB7DEB7FE
:100D4000AFE5B0E0EFE5F0E0808180688C93CF9173
:100D5000DF910895DF93CF93CDB7DEB7AFE5B0E075
:100D6000EFE5F0E080818F778C93CF91DF9108954C
:040D7000F894FFCF25
:00000001FF
